:020000040800F2
:10000000000002202113000869130008691300088A
:100010006913000869130008691300080000000054
:10002000000000000000000000000000691300084C
:100030006913000800000000691300086913000834
:1000400069130008691300086913000869130008A0
:100050006913000869130008691300086913000890
:100060006913000869130008691300086913000880
:100070006913000869130008691300086913000870
:100080006913000869130008691300086913000860
:100090006913000869130008691300086913000850
:1000A0006913000869130008691300086913000840
:1000B0006913000869130008691300086913000830
:1000C0006913000869130008691300086913000820
:1000D0006913000869130008610800086913000823
:1000E0006913000869130008691300086913000800
:1000F00069130008691300086913000869130008F0
:1001000069130008691300086913000869130008DF
:10011000691300086913000869130008010F00083B
:1001200069130008691300086913000869130008BF
:1001300069130008691300086913000869130008AF
:10014000691300086913000869130008691300089F
:10015000691300086913000869130008691300088F
:10016000691300086913000869130008691300087F
:10017000691300086913000869130008691300086F
:0801800069130008691300086F
:1001A00010B5054C237833B9044B13B10448AFF3B1
:1001B00000800123237010BD5004002000000000C7
:1001C00058180008084B10B51BB108480849AFF390
:1001D00000800848036803B910BD074B002BFBD013
:1001E000BDE81040184700BF000000005818000884
:1001F000540400204C04002000000000154B002B8C
:1002000008BF134B9D46A3F5803A00218B460F464D
:100210001348144A121A01F0E1F80F4B002B00D0DA
:1002200098470E4B002B00D0984700200021040077
:100230000D000D48002802D00C4801F02DFA01F005
:10024000A5F82000290001F01BF801F08FF800BF8D
:100250000000080000000000000000000000000096
:10026000500400207806002099160008A516000802
:100270002DE9F0410F464D49804601F05BF90546F6
:10028000002840D00124012C4FF0020619D0022C86
:100290003ED0032C54D0042C29467AD007F18F008D
:1002A00001F0EAF8002087F80E01404901F042F918
:1002B000054640B3062E26D00134012C06F1010676
:1002C000E5D12946384601F0D7F800233B7138467E
:1002D000374900F069FE58B33846364900F064FEED
:1002E00030B33846344900F05FFE08B3384633492E
:1002F00000F05AFEE0B13846314900F055FEB8B181
:10030000304800F0B5F9002388F80030BDE8F081EE
:1003100028462D4900F048FE20B128462B4900F020
:1003200043FE48BB2946781D01F0A6F800237B72E6
:1003300000201E4901F0FEF805460028BCD1E2E786
:100340002846234900F030FE70B12846214900F0CC
:100350002BFE48B12846204900F026FE20B1284651
:100360001E4900F021FEE0B9294607F10A0001F01C
:1003700083F80023BB73DBE72846194900F014FE1D
:100380000028CFD038460B4900F00EFE0028C9D116
:10039000B6E707F10F0001F06FF8002387F88E3001
:1003A000C6E7104800F064F9ADE700BF7817000811
:1003B0007C170008841700088817000890170008A9
:1003C00098170008A0170008B4170008B81700080D
:1003D000C0170008C4170008C8170008CC17000889
:1003E000BC170008D0170008394B3A481A6800219A
:1003F00042F001021A6099601A6822F0847222F4B5
:1004000080321A6058601A6882B022F480221A6022
:10041000D960009101911A6842F480321A601A463C
:1004200003E0009BB3F5A06F09D0136803F4003319
:100430000193009B01330093019B002BF1D0244BCF
:100440001B6813F4003318BF01230193019B012B98
:100450000BD0214BD3F888204FF0006142F470029A
:10046000C3F88820996002B07047194B1B491A6C79
:100470001B4842F080521A640A6842F480420A60C3
:100480009A689A609A6842F400429A609A6842F4C4
:10049000A0529A6058601A6842F080721A601A4638
:1004A00011680B4B8901FBD50E4A40F205611160C2
:1004B0009A6822F003029A609A6842F002029A60F7
:1004C0001A46936803F00C03082BFAD1C1E700BF6A
:1004D000003802401030002400ED00E000700040C1
:1004E00008544007003C02401848836803F00C039E
:1004F000042B28D0082B09D0154B144A15499268B3
:10050000C2F303128A5CD3400B61704743684168B1
:1005100013F4800F436818BF0F4801F03F020CBF6F
:100520000B49B0FBF2F1C3F3881308BFB1FBF2F142
:1005300001FB03F2054B5B68C3F3014301335B002E
:10054000B2FBF3F3D9E7044BD7E700BF0038024012
:100550000024F4000400002000127A00114A124B1B
:10056000116B41F0010110B41163116C0F4C41F497
:10057000003111641A6842F0A0021A601A6A42F44B
:10058000EE421A629A6842F020029A609A6880B23B
:1005900042F0800242F20C019A602081A1815DF854
:1005A000044B704700380240000002400044004005
:1005B000084A0949938923F400531B041B0C40206B
:1005C0009381486093899BB243F4005343F0240322
:1005D000938170470044004000E100E0094A0A4965
:1005E000938923F4005323F020031B041B0C4020A9
:1005F0009381C1F8840093899BB243F400539381A3
:10060000704700BF0044004000E100E003490B8850
:10061000024A9B06FBD59088C0B270470044004058
:1006200003490B88024A5B06FBD580B29080704775
:10063000004400400D4A70B4441E00F2FF350D2600
:10064000104614F8011F49B113885B06FCD589B226
:10065000818023780A2B03D0AC42F2D170BC704762
:1006600013885B06FCD58680F6E700BF0044004097
:100670000FB42DE9F0418CB012AB53F8046B019329
:100680003278BAB1754C002327461D4631464FF0EB
:100690000D08252A19D023885806FCD592B2BA80B5
:1006A0000B780A2B0BD00135ADB22B46725D711958
:1006B000002AEED10CB0BDE8F04104B070472388A9
:1006C0005B06FCD5A7F80480EDE733445A78002A8E
:1006D000E9D0623A162A79D8DFE802F05C6E4C78ED
:1006E000287878787878787878787878781F787833
:1006F00078780C009B78622B7ED0682B00F08B8082
:10070000772B019B00F09C801A1D013D1B68019214
:10071000ADB200934FF400604BE0019B1A1D1868C6
:100720000192FFF787FF0135ADB2BCE7019B0733AC
:1007300023F00703D3E900010833420F21F0784E7C
:100740000028019342EACE0371F10002B8BF43F0E2
:100750000043002001F08041009350EA010338D1AA
:100760004FF4807002AA694600F00EF902A8FFF764
:1007700061FFD8E79B78622B30D0682B53D0772B62
:10078000019B64D01A1D013D1B680192ADB200931C
:1007900020200EE09B78622B27D0682B34D0772B5B
:1007A000019B47D01A1D013D1B680192ADB2009319
:1007B00004200135ADB2D5E7019B191D1A780191CE
:1007C00023885B06FCD593B2BB80ACE70023009383
:1007D000A9E7009B43F080430093C1E7019B1A1DEA
:1007E0001B68019200930820E3E7019B1A1D1B6818
:1007F000019200930120DCE7019B1A1D1B68019206
:1008000000934FF40070D4E7019B1A1D1B680192FE
:1008100000930220CDE7019B1A1D1B6801920093F3
:100820004FF48060C5E7019B1A1D1B68019200937D
:100830001020BEE71A1D1B68019200930420B8E740
:100840001A1D1B68019200934FF40060B1E71A1D56
:100850001B68019200932020ABE700BF00440040DA
:100860002248234A302370B5037013889B0618D59D
:10087000204C214D21889688238889B201339BB270
:100880006E54238093889BB20D2B12D093889BB219
:100890000A2B0ED023889BB2B3F5007F24BF002320
:1008A0002380134B15489988BDE8704089B2FFF743
:1008B000DFBE23880E499BB20022EA5431232280F6
:1008C00003708B889BB2082B03D08B889BB27F2B45
:1008D000E7D10B48FFF7CCFE23880A4806499BB2B4
:1008E0000022EA54FFF7C4FEDBE700BF74060020D5
:1008F000004400406C040020740400204C180008E0
:100900003418000848180008F0B40D4A0D4F00F1E3
:100910000A053026914205F8016D08D3312400E024
:100920001C46891A631C9142DBB2F9D22C70A7FBDA
:10093000023285424FEAD202ECD1F0BC704700BFD0
:1009400000CA9A3BCDCCCCCC70B40B8800250930C2
:100950002C46ADB90678302E0FD0D6540B88013313
:100960009BB20B8001250134E4B20A2C00F1FF3068
:10097000EFD10021D15470BC7047092CF3D1ECE7C2
:100980000578D554EAE700BF2DE9F04784B000238D
:10099000102815461370ADF8023000F0548124D9A8
:1009A000B0F5007F4FD040F28280B0F5806F64D008
:1009B000B0F5006F16D11A4601240B6800E004461A
:1009C0001B0F092B03F130008ABF3733A854AB54F7
:1009D000601C0B6880B21B0109280B602246EED117
:1009E00000232B7204B0BDE8F087022800F01481C8
:1009F00017D9042840F024810B6805F12000302429
:100A00003126002BB4BF167014700B6801325B00E6
:100A100082420B60F5D1002385F8203004B0BDE898
:100A2000F0870128DED10B6805F10800302631245B
:100A30001F064CBF147016700B6801325B008242B7
:100A40000B60F5D1CCE71A460B680124C3F30313FE
:100A5000092BD8B200F1300386BF3730A854AB540D
:100A6000601C0B6880B21B0103280B6040F0D18032
:100A70000023AB7004B0BDE8F0871A460B6814463B
:100A8000C3F30333092BD8B200F130038ABF3730E8
:100A90002B55285501320B6892B21B01042A1446CB
:100AA0000B60EDD100232B7104B0BDE8F087202846
:100AB00000F0C980B0F5807F94D191ED007AB5EE59
:100AC000C07AF1EE10FA00F1FA80F7EE007AB4EE97
:100AD000E77AF1EE10FA00F1DC8040F301810023A7
:100AE000B2EE046A67EE867A0133B4EEE77AF1EE8D
:100AF00010FA9BB2F2EE046AF4DCC7EEA67A5C1E32
:100B0000A4B24FF020080DF10E077949DFF8ECC1CF
:100B1000384601AE4FF0300EC7EE277A9FED757A5A
:100B2000FCEEE76A16EE902AF8EE666A77EEE67A51
:100B300067EE877AFCEEE77A17EE90AA914200F80A
:100B400001ED0BD84FF0310900E09946521A09F136
:100B500001038A42DBB2F8D280F80090ACFB01318D
:100B6000B0424FEAD101E9D10DF1020949463046C0
:100B70002A46FFF7E9FE5E4ADFF880E13946302079
:100B8000524501F8010D0CD84FF0310C00E09C46A5
:100B9000C2EB0A0A0CF101039245DBB2F7D281F8ED
:100BA00000C0AEFB02328E424FEAD202E8D12E23C1
:100BB00049462A4630468DF80730FFF7C5FEBDF896
:100BC0000220531C65219BB2B8F12D0FA954ADF83A
:100BD000023058D0464ADFF824E13020A24207F81C
:100BE000010D08D8312100E01946A41A4B1C94428B
:100BF000DBB2F9D23970AEFB0232BE424FEAD2020A
:100C0000ECD1304649462A46FFF79EFE04B0BDE8C7
:100C1000F0872246044619E70B6805F110003026DC
:100C200031241B044CBF147016700B6801325B003A
:100C300082420B60F5D100232B7404B0BDE8F0872D
:100C400008287FF4CFAE0A68002A40DB2849DFF885
:100C5000ACE001AE0DF10E043027914204F8017DA5
:100C600008D8312000E01846521A431C8A42DBB2F1
:100C7000F9D22070AEFB0131B4424FEAD101ECD180
:100C80000DF10209BDE7023205F80380ADF802203C
:100C9000A0E7DFED197AB4EEE77AF1EE10FA24D589
:100CA000F0EE676A012467EEA67A0134B4EEE77AC3
:100CB000F1EE10FAA4B2F6D44FF02D0823E72D225E
:100CC0000123B1EE477A2A70ADF80230FDE62D23FC
:100CD0002B700A68012352420A60ADF80230B5E772
:100CE0004FF6FF74DFED047A0BE70124E4E700BF61
:100CF00000CA9A3B00007A44CDCCCC3DCDCCCCCCC4
:100D000019491A4A0B6C70B443F0400353264FF450
:100D10007A7584240B641685D5621480938A9BB2FD
:100D200043F00103938213889BB243F001031380C5
:100D3000114650B1138ADB07FCD50B8A23F001035F
:100D40001B041B0C01380B82F4D10849064A0B889E
:100D500023F001031B041B0C0B80136C23F04003D6
:100D6000136470BC704700BF003802400018004098
:100D70001849194A0B6C70B443F0400300265425FF
:100D800084240B641685D5621480938A9BB243F049
:100D90000103938213889BB243F001031380114631
:100DA00050B1138ADB07FCD50B8A23F001031B0427
:100DB0001B0C01380B82F4D10749064A0B8823F03B
:100DC00001031B041B0C0B80136C23F04003136402
:100DD00070BC7047003802400018004070B40948E9
:100DE000094B026C53264FF0FF358424002142F05A
:100DF000080202641E85DD621C80998070BC596205
:100E0000704700BF00380240000C0040054A938A3A
:100E10009BB243F00103938213889BB243F001031A
:100E200013807047000C0040044A506A138823F076
:100E300001031B041B0C1380704700BF000C004013
:100E40000E48016C4FF0804330B400224FF0FF3564
:100E5000842441F0010101641A85DD621C809A80BE
:100E60005A629A8A92B242F001029A821A8892B227
:100E700042F001021A8030BC704700BF00380240C7
:100E80004FF08043586A70474FF080435B6A83425B
:100E900005D3084483422CBF002001207047C04383
:100EA0001844814294BF002001207047F0B4114CD7
:100EB000114B226C1148002142F0200253274FF4BD
:100EC0007A76842522641F85DE621D8099805962AE
:100ED0009A8A92B2012542F001024FF400049A82EC
:100EE0009D8180F8371344601A8892B22A431A8091
:100EF000F0BC7047003802400014004000E100E000
:100F0000054B1A8AD20705D504490A680020013228
:100F10000A601882704700BF00140040700400206F
:100F2000014B1868704700BF7004002070B4144C67
:100F300026681C68864209D3D4B9521A10448642E6
:100F40000AD3012220461A6070BC7047C54334B9E9
:100F5000A819521A9042F4D2012070BC7047186848
:100F60000128F1D13544A942EED800201860EBE702
:100F70001A68012AE8D108448642EDD3F5E700BF9C
:100F800070040020F8180008000000204C04002025
:100F9000500400207806002000000000000000003F
:100FA000A2EB0300704700BF02780B78012A28BF2C
:100FB0009A42F5D16DE9044540EA0104CDE90267A2
:100FC0006FF0000C4FEA447212B380EA010414F08F
:100FD000070F6AD100F0070420F0070004F00305B2
:100FE00021F007014FEAC505F0E8042314F0040FCF
:100FF000F1E804670CFA05F462EA040266EA040602
:101000000AD063EA0403624667EA0407664603E01F
:10101000F0E80423F1E8046782FA4CF582EA06045A
:10102000A4FA8CF46CBB83FA4CF583EA0705A5FAA5
:101030008CF595B950E9022351E9026782FA4CF523
:1010400082EA0604A4FA8CF483FA4CF583EA0705D5
:10105000A5FA8CF52543DBD09CB92DBAB5FA85F4F9
:1010600024F0070427FA04F1DDE9026723FA04F308
:1010700003F0FF0001F0FF01FDE80445A0EB0100D3
:10108000704724BAB4FA84F424F0070426FA04F171
:10109000DDE9026722FA04F202F0FF0001F0FF012D
:1010A000FDE80445A0EB0100704714F0030F3CD1AC
:1010B00010F0030428D150F8082B51F8083B82FAAD
:1010C0004CF582EA0305A5FA8CF55DB950F8042CBD
:1010D00051F8043C82FA4CF582EA0305A5FA8CF536
:1010E000002DE8D02DBAB5FA85F424F0070423FAD0
:1010F00004F122FA04F202F0FF0001F0FF01FDE822
:101100000445A0EB010070474FEAC40420F003003F
:1011100050F8082B21F0030151F8083B0CFA04F4B5
:1011200062EA040263EA0403C9E710F003041AD078
:10113000A1EB040120F00300E40750F8042B06D0D3
:101140000FD28B785FFAA2F4E41A06D12BB1CB78D8
:101150005FFAB2F4E41A00D11BB920465DF8104BD7
:10116000704701F1040150F8042BCC0721F0030172
:1011700051F8043B48D824D222F07F4482FA4CF53F
:1011800094EA1325A5FA8CF50AD165B951F8043B08
:1011900084EA0204B4EB036F0ED150F8042BEBE7A2
:1011A0004FEA132355E035F07F454DD10878FDE82F
:1011B0000445C0F1000070474FEA126203F0FF03DC
:1011C00047E002EA1C4482FA4CF594EA1345A5FA7A
:1011D0008CF50AD165B951F8043B84EA0204B4EBFA
:1011E000034F0CD150F8042BEBE74FEA134330E0E8
:1011F00015EA1C4528D10B884FEA124229E04FEA34
:10120000124203EA1C4324E002F0FF0482FA4CF588
:1012100094EA1365A5FA8CF50AD165B951F8043B37
:1012200084EA0204B4EB032F09D150F8042BEBE756
:101230004FEA13630DE015F0FF0F05D10B684FEA7D
:10124000122223F07F4304E04FF00000FDE8044544
:10125000704712BA1BBA82FA4CF482EA0304A4FA69
:101260008CF5B5FA85F402FA04F203FA04F34FEAB6
:101270001260FDE80445A0EB13607047AFF30080F7
:1012800030B54FF4B670C5B0FFF768F9FFF790F9C5
:10129000FFF70CFE6846002140F20F12184C00F0D8
:1012A0009DF825462378312B4FF0320006D0FFF70A
:1012B00027FD2378312B4FF03200F8D169461148D1
:1012C000FEF7D6FF1048FFF7D3F9302369460F48E1
:1012D0002B70FFF7CDF90DF105010D48FFF7C8F9A7
:1012E0000DF10A010B48FFF7C3F90DF10F010A4890
:1012F000FFF7BEF909480DF18F01FFF7B9F9D1E702
:101300007406002074040020F0170008E417000899
:10131000F41700080418000814180008241800081E
:10132000002103E00B4B5B58435004310A480B4B40
:1013300042189A42F6D30A4A02E0002342F8043BDC
:10134000084B9A42F9D3FFF74FF800F01FF8FFF768
:1013500097FF7047F8180008000000204C04002098
:101360005004002078060020FEE7000008B50021A8
:10137000044600F027F9044B1868C36B03B1984783
:10138000204600F0AFFA00BF5418000870B50F4EA9
:101390000F4D761BB61018BF002405D0013455F848
:1013A000043B9847A642F9D10A4E0B4D761B00F03C
:1013B0008DFAB61018BF002406D0013455F8043B4E
:1013C0009847A642F9D170BD70BD00BFEC18000867
:1013D000EC180008F4180008EC18000870B4840732
:1013E00046D0541E002A41D0CDB2034602E0621E10
:1013F000E4B3144603F8015B9A07F8D1032C2ED905
:10140000CDB245EA05250F2C45EA054519D903F16A
:1014100010022646103E0F2E42F8105C42F80C5C7B
:1014200042F8085C42F8045C02F11002F2D8A4F120
:10143000100222F00F0204F00F041032032C1344A8
:101440000DD91E462246043A032A46F8045BFAD810
:10145000221F22F003020432134404F003042CB1CF
:10146000C9B21C4403F8011BA342FBD170BC7047F6
:1014700014460346C2E700BF80EA0102844612F028
:10148000030F4FD111F0030F32D14DF8044D11F07D
:10149000040F51F8043B0BD0A3F101329A4312F030
:1014A000803F04BF4CF8043B51F8043B16D100BF09
:1014B00051F8044BA3F101329A4312F0803FA4F19A
:1014C00001320BD14CF8043BA24312F0803F04BF21
:1014D00051F8043B4CF8044BEAD023460CF8013B8E
:1014E00013F0FF0F4FEA3323F8D15DF8044B704738
:1014F00011F0010F06D011F8012B0CF8012B002A76
:1015000008BF704711F0020FBFD031F8022B12F064
:10151000FF0F16BF2CF8022B8CF8002012F47F4F1F
:10152000B3D1704711F8012B0CF8012B002AF9D127
:10153000704700BF024B1A6801235C3200F002B80A
:1015400048040020F0B420B307460D4617F8016B9D
:1015500001E0A64216D015F8014B002CF9D1EEB1EE
:101560003E460C4616F8015B00E073B114F8013BEF
:10157000AB42FAD15DB100233B701660064630469F
:10158000F0BC704763B13846DEE73746E8E72E46E1
:10159000F3E710680028D7D10646F0E71660EEE7BB
:1015A000176006460370EAE70123FFF7CBBF00BFD1
:1015B000024B13B1024800F06FB870470000000002
:1015C000A51600082DE9F04F314B83B01B6800933E
:1015D00003F5A47381460E460193009BD3F848712E
:1015E00027B3DDF804A07C68651E0ED4013407EB38
:1015F00084044FF00008E6B1D4F80031B34218D0AB
:10160000013D6B1CA4F10404F5D1224B73B17B683E
:10161000002B36D13B68002B34D03846CAF8003056
:10162000AFF30080DAF80070002FDCD103B0BDE822
:10163000F08F7B682268013BAB420CBF7D60C4F831
:101640000080002ADCD0D7F88831D7F804B0012117
:10165000A940194208D190477B685B45BDD1DAF8B3
:101660000030BB42CCD0B8E7D7F88C31194204D156
:101670004846D4F880109047EEE7D4F880009047B1
:10168000EAE73B68BA461F46002FACD1CEE700BF61
:1016900054180008000000000146002002460346DE
:1016A00000F016B838B5084B084DED1AAC1018BF4D
:1016B000ED1805D0013C55F8043D9847002CF9D1B0
:1016C000BDE8384000F008B9F4180008F818000820
:1016D0002DE9F047254C2568D5F84841064688464F
:1016E00092469946CCB360681F2818DC431C7EB133
:1016F00004EB80050121C5F888A0D4F8887101FAAF
:1017000000F21743022EC4F88871C5F808911ED064
:101710000230636044F820800020BDE8F087144B5D
:1017200003B34FF4C870AFF300800446D0B1D5F8CE
:101730004831002780E88800C5F848413846012331
:10174000C4F88871C4F88C71002EE1D0D0E7D4F8C9
:101750008C110A43C4F88C21DAE705F5A674C5F8A4
:101760004841C0E74FF0FF30BDE8F087541800084B
:1017700000000000FEE700BF200000007062746EF1
:10178000000000006C65640068656C70000000007B
:101790006D617031000000006D617062000000003A
:1017A000496E76616C696420636F6D6D616E640A69
:1017B00000000000730000006200000070000000E4
:1017C0003000000031000000320000003300000053
:1017D000496E76616C6964206C6564206E756D621B
:1017E00065720A0020506172616D313A20257320C4
:1017F0000A00000020506172616D323A202573208A
:101800000A00000020506172616D333A2025732078
:101810000A00000020506172616D343A2025732067
:101820000A00000020506172616D353A2025732056
:101830000A0000006261636B537061636520646538
:1018400074656374656400002573000025630000FF
:1018500043000000200000201000000000000000F5
:10186000017A5200027C0E011B0C0D005800000092
:101870001800000040F7FFFFC802000000420E10F1
:1018800084048503448602870102540A42C6C7487D
:10189000C4C5430B470A42C6C748C4C5430B640AC4
:1018A000C6C748C4C5430B690A43C4430B640A4214
:1018B000C4C5C6C7430B024A0A42C4C5C6C7410BCA
:1018C00052C4C5C6C700000000000000F8B500BF44
:1018D000F8BC08BC9E467047F8B500BFF8BC08BC11
:0418E0009E46704769
:0818E40018E9FF7F010000007C
:0818EC00B1150008C501000858
:0418F400A101000846
:1018F80000000000000000000000000001020304D6
:1019080006070809007A030AFF010000000000002A
:10191800000000000C03002074030020DC030020FA
:1019280000000000000000000000000000000000AF
:10193800000000000000000000000000000000009F
:10194800000000005018000800000000000000001F
:10195800000000000000000000000000000000007F
:10196800000000000000000000000000000000006F
:10197800000000000000000000000000000000005F
:10198800000000000000000000000000000000004F
:10199800000000000000000000000000000000003F
:1019A800000000000000000000000000000000002F
:1019B800000000000000000001000000000000001E
:1019C8000E33CDAB34126DE6ECDE05000B000000E3
:1019D80000000000000000000000000000000000FF
:1019E80000000000000000000000000000000000EF
:1019F80000000000000000000000000000000000DF
:101A080000000000000000000000000000000000CE
:0C1D38000000000000000000200000205F
:041D4400000000009B
:0400000508001321BB
:00000001FF
